:020000040000FA
:08000000803102288731D92F5D
:1005CA0001300800053008002E000F100800230033
:1005DA00901208002E0019100800230011140800B8
:1005EA002300911408002300111508002300911517
:1005FA00080023000C0808002E000F140800200031
:10060A009E17080020009E1308002034003420346E
:10061A0023009116111608002300911211160800E2
:10062A00F000700823008C0008002000BC10BB01F9
:10063A000E3008008231F522833101300800823100
:10064A00F5228331023008008231F52283310130EC
:10065A0008008231F82283310030080083311123E7
:10066A0083310530080083310D2383310A300800B5
:10067A0083310D238331093008002000BC10BB01EF
:10068A000E30080000308431F124833108002E0036
:10069A000C0E890C013908002300110E890C890CF3
:1006AA00013908002E000F1C5B2B5C2B572B08000E
:1006BA00640080010131890B5E2B003420003C105C
:1006CA008231FB228331043008002F009601970102
:1006DA00980199019A019B01080020003C143635C3
:1006EA0083311523833103300800623031008D00D5
:1006FA008F019101043093009201080020003C14FC
:10070A000314360D833115238331053008008030F8
:10071A0023008F0008309000910106308D0090125E
:10072A0008002000E6006608E5006508DE006F3074
:10073A008631D826833108004B3020009F001630BE
:10074A009D009C012E008C128F3020009E00080014
:10075A007608F1007508F0007708F8007808F200CA
:10076A0000308531322583310800C12B833157236C
:10077A0083318531582583312000BC18C52BC62BFF
:10078A00BB2B08007608F1007508F0007708F8001E
:10079A007808F200023085313225833108002300BF
:1007AA00901AD82BD92BE12B80308F00083090007B
:1007BA00910106308D0090160800F3002000BC1D40
:1007CA00E72BE82BF12B7308F2007208B7007108C7
:1007DA00B9007008B800BC1108000230F0000030FF
:1007EA00F10079088331E22383310030F500F60005
:1007FA00F7018331AD238331043008000130F00062
:10080A000030F10079088331E22384310030F500A9
:10081A00F600F7018331AD2384310430080001303A
:10082A00F0000030F10079088331E223843100308E
:10083A00F500F600F7018331AD2384310230080058
:10084A000230F0000030F10079088331E22384316C
:10085A000030F500F600F7018331AD238431023010
:10086A0008000230F0000030F10079088331E223F9
:10087A0084310030F500F600F7018331AD2384316D
:10088A00043008000130F0000030F10079088331AB
:10089A00E22384310030F500F600F7018331AD23FD
:1008AA008431023008000230F0000030F10079088B
:1008BA008331E22384310030F500F600F7018331F9
:1008CA00AD238431023008000130F0000030F1001D
:1008DA0079088331E22384310030F500F600F7010C
:1008EA008331AD2384310430080083316A23843193
:1008FA0083318C23843186319126843183317A2362
:10090A0084318331A123843187317D2784310800E2
:10091A00790886008701403FF000413FF1007908DD
:10092A00023E8600870101088331E22384310030C8
:10093A00F500F600F7018331AD2384310230080057
:10094A00790886008701403FF000413FF1007908AD
:10095A00023E8600870101088331E2238431003098
:10096A00F500F600F7018331AD2384310230080027
:10097A002000E5006508E3006308DE006208E40081
:10098A006408DF006F308531DE25843105302000B0
:10099A00E300DD30890BCF2CE30BCF2C00320800AB
:1009AA00F101F10A2000BC18DB2CDC2CEF2C3C11E5
:1009BA00FF30F0007008B6008231E92284318231BA
:1009CA00EF2284318231EC22843120003B08F0008E
:1009DA007008F100710808002000DC00DD01DD0A62
:1009EA00BC18F82CF92C0D2DBC14DD015C08031978
:1009FA00FF2C002D032DBA01BA0A072D0230FD0083
:100A0A007D08BA008231F22284318331BA238431DB
:100A1A0020005D08080084317A248531833104235B
:100A2A00853183314C238531003A03191D2D1E2D42
:100A3A00162D83310723853103102000961F0314D6
:100A4A000318282D2B2D200096172D2D20009613E4
:100A5A002E008C12132D80310228F40070087104C4
:100A6A000319382D392D4A2D7435203E8600870109
:100A7A007008C03F7108C13F7208F30074082C3E29
:100A8A008600870173088100572D7435203E860041
:100A9A008701E530C03F0230C13F74082C3E860012
:100AAA008701810108008231E922853120003C1C3E
:100ABA005F2D602D6D2D833151238531003A031945
:100ACA00672D682D6D2D0F302000D9005908BA0006
:100ADA0020003A08D900DA01D935DA0D533059071E
:100AEA00840088305A3D8500013F8A00003F0A0091
:100AFA0085312000DB005B08BA00080020003C10AA
:100B0A000230FA007A08BB00922D833129238531FD
:100B1A00AE2D83312E238531AE2D2E08FA007A08A8
:100B2A00F9000430203E86008701413F8A00403F99
:100B3A000A008531FB00FC017C08003A0319A62D46
:100B4A008E2D7B08023A03198A2D013A03198A2D40
:100B5A008E2D08002000BC15BF2D83312923853135
:100B6A00DD2D8331012385310330DD2D83312E23A1
:100B7A008531DD2D2C08FA007A08F90021088A004F
:100B8A0020080A008531FB00FC017C08003A0319A1
:100B9A00CF2DBB2D7B08013A0319BB2D033A03194C
:100BAA00B22D013A0319B22D073A0319B62DBB2DFE
:100BBA0008002000E10020006108863111268531F5
:100BCA00003A0319E92DEA2DE02D0330F50004302F
:100BDA00F6005F302000E0006008F7008331AD23A3
:100BEA0085310130F0000030F1005E308331E223BC
:100BFA0085310030F500F600F7018331C7238531CE
:100C0A008331472385318431D5248531013A03194B
:100C1A000F2E102E082E0800F100F201F20A200011
:100C2A003C19182E192E492E7108F0007008B600CA
:100C3A00BC103C153C100E30F0007008BA00F430BD
:100C4A00B4000130B500BC15E530A0000230A100A7
:100C5A00AC01E530A2000230A300AD01E530A400EA
:100C6A000230A500AE01E530A6000230A700AF01B0
:100C7A00E730A8000230A900B0018231E9228631AA
:100C8A008331D4238631F201720808008231FE22B0
:100C9A008631FA0020003708860087017A08810029
:100CAA000130FA007A08B7070130B8020030B93BC0
:100CBA00380839040319622E632E682E83311123F2
:100CCA0086310530902EBC15722E83313D23863134
:100CDA00902E833138238631902E2C08FA007A0818
:100CEA00F90021088A0020080A008631FB00FC016D
:100CFA007C08003A0319822E6E2E7B08013A0319EA
:100D0A006E2E033A03196A2E013A03196A2E073A1C
:100D1A0003196E2E6E2E080020009A0102309900E7
:100D2A008030960097019801073095007F30910036
:100D3A00FF309200FF309300FD309400FD303E00FA
:100D4A00D900E730CE00FF30C3000730E4003F305F
:100D5A00B800DA01E501C401B901CF01E601BA011F
:100D6A00C501D001DB01FF30BB00FF30C600FF30F8
:100D7A00D100FF30DC000730E700FF30BC00FF3055
:100D8A00C700FF30D200FF30DD000730E800133023
:100D9A003D00C50014303E00A3001530A4001430F5
:100DAA003D00C60008002000E0002A30DF005F088E
:100DBA00E4000230E2000030E300200060088631DF
:100DCA0011268631003A0319EB2EEC2EE22E14304E
:100DDA00F5000430F60064302000DF005F08F700F9
:100DEA008331AD2386310130F0000030F1005E30EE
:100DFA008331E22386310030F500F600F7018331B2
:100E0A00C72386318331472386318431D5248631FD
:100E1A002000DF005F08E10061030319152F162F78
:100E2A000A2F6108031D1A2F1B2F1C2F262FFF3094
:100E3A00E207FF30E33D62086304031D252F262FD6
:100E4A00E22E64080800833151238731003A0319DE
:100E5A002F2F302F602F3D2F83311F2387317C2F77
:100E6A008331242387317C2F83312E2387317C2FB2
:100E7A0020002F08FA007A08F9000630203E860082
:100E8A008701413F8A00403F0A008731FB00FC018D
:100E9A007C08003A0319522F392F7B08013A0319AB
:100EAA00392F033A0319312F013A0319352F073A1B
:100EBA000319392F392F20003C101730203E8600A5
:100ECA008701403F84008501810A00088331152388
:100EDA00873101302000B8020030B93B38083904A4
:100EEA00031D782F792F7B2F06307C2F03300800C3
:100EFA002000E90103308331962387310739200026
:100F0A00E700E80167082100AC002000680821001A
:100F1A00AD002C0808382000E7006708E20003301B
:100F2A008431BD24873100308331962387312000F4
:100F3A00E700E80167082100A000200068082100F6
:100F4A00A10040302000E7006708E2000730843142
:100F5A00BD2487312100200880382000E700670877
:100F6A00E20000308431BD248731C72F033083313A
:100F7A00962387312000E7006708E9002030E70060
:100F8A006708E905200069080319CC2FCD2FBB2F6C
:100F9A0021002C0808382000E7006708E200033027
:100FAA008431BD248731080083310A238731EA005E
:100FBA0083310B238731EB0083310C238731EC001B
:100FCA002030840000308500393083315D23873139
:100FDA00A0308400003085004F3083315D23873193
:100FEA002030840001308500203083315D23873131
:100FFA0020008531102D0034003400340034803450
:10100A00DE34283400348034C8344D34003400349B
:10101A00A73476340034003434349E3400348034B7
:10102A001234C734003480349F34EE340034003430
:10103A007E341734013480345C34403401348034D3
:10104A00E934673401340034C8349034013400344C
:10105A005534B834013447344D34543400342534CB
:10106A003034343464342D342534303432346434F6
:10107A002D34253430343234643420342534303439
:10108A00323464343A3425343034323464343A34C1
:10109A0025343034323464340A3400341A34033494
:1010AA008334033472340334283407344B3406341B
:1010BA0063340334AF3405341F3403342434033423
:1010CA00293403342E3403343334033438340334A8
:1010DA003D34033442340334833405341F341E341C
:1010EA001F341E341F341F341E341F341E341F3461
:0410FA001F341D344E
:020000040001F9
:0A000E00EC3FFF3F9F3FFF3FFF3F25
:00000001FF
